:020000040800F2
:1000000088290020ED010008993B000813360008FC
:10001000953B0008AB070008B14D00080000000048
:100020000000000000000000000000005143000834
:10003000AF07000800000000C73C0008D5430008D7
:10004000070200080702000807020008070200086C
:10005000070200080702000807020008BD070008A1
:10006000C707000807020008070200080702000887
:10007000070200080702000807020008070200083C
:10008000070200080000000007020008070200083D
:10009000070200080702000807020008D10700084D
:1000A000070200080702000807020008070200080C
:1000B00007020008070200080702000807020008FC
:1000C00007020008070200080702000807020008EC
:1000D00007020008214C0008A54C0008294D000823
:1000E000B10700080702000807020008070200081D
:1000F00007020008070200080702000800000000CD
:1001000000000000070200080000000007020008CD
:100110000702000800000000B9440008C9440008B4
:10012000070200080702000807020008070200088B
:10013000070200080000000000000000070200089D
:10014000070200080702000800000000000000008D
:10015000000000000000000000000000000000009F
:10016000000000000000000000000000070200087E
:10017000070200080000000000000000000000006E
:10018000000000000702000800000000000000005E
:10019000000000000000000000000000000000005F
:1001A000000000000000000007020008070200082D
:1001B000070200080702000807020008000000000C
:1001C000000000000702000800000000000000001E
:1001D0000702000807020008DFF80CD000F064FAFC
:1001E00000480047A55A0008882900200648804793
:1001F00006480047FEE7FEE7FEE7FEE7FEE7FEE70C
:10020000FEE7FEE7FEE7FEE7A5440008D901000887
:100210002DE9F05F0546002092469B46884606463B
:10022000814640241BE0284641464746224600F0CE
:1002300072F853465A46C01A914110D311461846D7
:10024000224600F059F82D1A67EB01084F46224666
:100250000120002100F050F817EB00094E41201E4C
:10026000A4F10104DFDC484631462A464346BDE896
:10027000F09F40EA01039B0703D009E008C9121F61
:1002800008C0042AFAD203E011F8013B00F8013B50
:10029000521EF9D27047D2B201E000F8012B491E7C
:1002A000FBD270470022F6E710B513460A46044613
:1002B0001946FFF7F0FF204610BD034611F8012B49
:1002C00000F8012B002AF9D11846704730B50B46CB
:1002D000014600202022012409E021FA02F59D4276
:1002E00005D303FA02F5491B04FA02F52844151E4A
:1002F000A2F10102F1DC30BD202A04DB203A00FA31
:1003000002F1002070479140C2F1200320FA03F36C
:10031000194390407047202A04DB203A21FA02F06A
:100320000021704721FA02F3D040C2F1200291402F
:100330000843194670472DE9FE4F804681EA0300C5
:10034000C00F0C46009021F0004123F00045B8EBAF
:100350000200A94105D24046214690461C460B4664
:10036000024623F00040104347D0270DC7F30A0090
:10037000C3F30A510290401A019040286BDAC3F38C
:10038000130040F4801B0098924620B10023D2EB6A
:10039000030A63EB0B0B01985946C0F1400250462B
:1003A000FFF7AAFF06460D4650465946019A00F04F
:1003B0008DF910EB08006141002487EA115284EAAC
:1003C000E7731A4340D0009A62B3019A012A4FEAB8
:1003D000075215DC001B61EB02014FF0004202EAFC
:1003E0000752CDE90042001C41F5801132462B46F0
:1003F00000F08DF903B0BDE8F08F40462146F9E7E3
:10040000001B61EB0201001C41F5801300185B41E9
:100410002018A2F5001747EB030140EAD570B61982
:100420006D4111E06D084FEA360645EAC0754FEAA6
:100430000752001B61EB0201001C41F580114908C5
:100440004FEA30000019514132462B4603B0BDE857
:10045000F04F00F04DB90098012240000023D0EB8E
:10046000020263EBE073009821464FEAE074B8EBB8
:10047000000061EB0401E9E783F000435BE781F0F2
:10048000004158E72DE9FE4F81EA030404F00044DF
:1004900021F0004100944FF0000B23F0004350EA9C
:1004A00001045ED052EA03045BD0C3F30A54C1F3E3
:1004B0000A552C44A4F2F3340194A0FB0254C1F376
:1004C000130141F48011C3F3130343F4801301FBC0
:1004D000024400FB034E840A970A44EA815447EA27
:1004E0008357A4FB076802958D0A05FB07854FEA31
:1004F000932C04FB0C542705029D4FEA065847EA4B
:100500001637B5EB08056EEB070C870E920E47EA1F
:10051000811742EA8312A7FB0201B6EB0B0164EBE1
:1005200000042B0D43EA0C335E1844EB1C50DA46F2
:100530005146E7FB0201C5F313044FEA0B3343EACC
:1005400014534FEA0432019C43EA0603A4F10C045D
:100550000294009CCDE900B400F0D9F803B0BDE8E6
:10056000F08F00200146F9E72DE9F04D81EA030400
:1005700004F0004B21F0004514464FF0000A23F030
:10058000004150EA050220D054EA01021DD0C5F313
:100590000A570246C5F31303C1F31300C1F30A5609
:1005A00040F4801543F48013A7EB0608101BD646D1
:1005B00008F2FD3873EB050002D308F1010801E0F1
:1005C00092185B41B8F1000F03DA00200146BDE844
:1005D000F08D00204FF48011064684460EE0171B74
:1005E00073EB050705D3121B63EB050306434CEAC7
:1005F000010C49084FEA300092185B4150EA0107AC
:10060000EDD152EA030012D082EA040083EA050128
:10061000084305D0101BAB4106D20122002306E09F
:1006200000224FF0004302E06FF0010253101AEB7A
:1006300006004CEB085110EB0A0041EB0B01BDE842
:10064000F04D00F055B8C1F30A52C1F3130140F266
:10065000FF3341F480119A4202DA002001467047CC
:1006600040F233439A42A2F2334202DC5242FFF795
:1006700052BEFFF741BE000030B5041E71F1000408
:1006800004DB4FF00044404264EB0101141E73F19F
:10069000000405DB1C464FF00043524263EB0403A9
:1006A000994208BF904230BD064C074D06E0E06815
:1006B00040F0010394E8070098471034AC42F6D3A9
:1006C000FFF78EFD505D0008705D0008202A06DBF4
:1006D000CB17203A41FA02F043EAE07306E041FA10
:1006E00002F3D040C2F120029140084319467047FE
:1006F00010B5141E73F1000408DA401C41F100012A
:1007000092185B411A4301D120F0010010BD2DE980
:10071000F04D92469B4611B1B1FA81F202E0B0FA77
:1007200080F220329046FFF7E7FD04460F4640EA8C
:100730000A0041EA0B0153465A46084313D01146BA
:1007400053EA010019D0C8F140025046FFF7E3FD1B
:1007500005460E46504659464246FFF7CDFD084332
:1007600005D0012004E020463946BDE8F08D002088
:10077000054346EAE0762C4337430A986305E40ACA
:10078000A0EB08000022FD0A44EA47540A3002D5D3
:1007900000200146E9E7010510196941DDE9084536
:1007A00000196941BDE8F04DA2E700BFFEE77047C0
:1007B00010B54FF4006000F055FD10BD10B50220DB
:1007C00000F050FD10BD10B5042000F04BFD10BD31
:1007D00010B5402000F046FD4FF4007000F042FDDF
:1007E00010BD72B600BFFEE72DE9F0439BB0044692
:1007F0000E464FF00008306800B100BF00BF94F80B
:100800005800012803D102201BB0BDE8F08301206D
:1008100084F8580000BF0020179018902068B0F1AD
:10082000A04F02D13148009001E0002000900098D4
:1008300050B9E06D40F02000E06500BF002084F872
:10084000580000BF0120DFE7009802F006FF0746CE
:10085000206802F002FFD8BBD7BB254D306800B33B
:1008600094F83800716841EA4030A96821F4604189
:100870000843A8604FF0A04002F0E0FE81461B480C
:1008800002F0DCFE49EA0009B9F1000F27D1B16896
:1008900030680843A96840F61F7291430843A86076
:1008A0001DE0A86820F46040A8604FF0A04002F06E
:1008B000C5FE81460D4802F0C1FE49EA0009B9F1C2
:1008C000000F0CD1A86840F61F718843A86006E0AD
:1008D000FFE7E06D40F02000E0654FF0010800BF49
:1008E000002084F8580000BF40468DE7000100500A
:1008F000000300502DE9F84F05460C464FF0000A62
:1009000000200090FE49E068884200D000E000BF6F
:1009100000BF95F85800012802D10220BDE8F88FE9
:10092000012085F8580000BF286802F091FE0028D9
:100930007DD12968D4E9002001F1300CC0F3012BEE
:100940000CEB8B03D3F800C000F01F0E4FF01F0B11
:100950000BFA0EFB2CEA0B0C00F01F0BC2F3846E9B
:100960000EFA0BFE4CEA0E0CC3F800C000BF28685C
:1009700002F06EFE8146286802F056FE8046B9F10C
:10098000000F64D1B8F1000FFBD1A068B0F1004FA7
:100990000AD121680022286802F064FE4FF000416D
:1009A000286802F084FE08E0A2682168286802F046
:1009B00059FE0021286802F07AFE60692968C9683A
:1009C000C1F3C101490000FA01F7206904283FD0B2
:1009D00028682268216900F1600C0CEB8103D3F8D0
:1009E00000C0DFF820B30CEA0B0C02F0F84B4BF020
:1009F000004B4BEA070B4CEA0B0CC3F800C000BFDE
:100A00002868A269216900F1600C0CEB8103D3F81E
:100A100000C02CF0807C4CEA020CC3F800C000BF80
:100A20002868227F2169012A02D1520601E0C6E12D
:100A30000022134600F1600C0CEB8102D2F800C0DA
:100A40002CF0007C4CEA030CC2F800C000BFA7E009
:100A50000021286802F0DFFDC0F3120030B9002148
:100A6000286802F0D8FDC0F3846007E00021286800
:100A700002F0D1FD90FAA0F0B0FA80F02168C1F345
:100A8000120119B92168C1F3846104E0216891FA67
:100A9000A1F1B1FA81F1884204D1002211462868FF
:100AA00002F0FAFD0121286802F0B5FDC0F3120042
:100AB00030B90121286802F0AEFDC0F3846007E080
:100AC0000121286802F0A7FD90FAA0F0B0FA80F0AA
:100AD0002168C1F3120119B92168C1F3846104E0EE
:100AE000216891FAA1F1B1FA81F1884204D1002282
:100AF0000121286802F0D0FD0221286802F08BFD58
:100B0000C0F3120030B90221286802F084FDC0F35E
:100B1000846007E00221286802F07DFD90FAA0F0D1
:100B2000B0FA80F02168C1F3120119B92168C1F34C
:100B3000846104E0216891FAA1F1B1FA81F188425F
:100B400004D100220221286802F0A6FD03212868B2
:100B500002F061FDC0F3120030B90321286802F0F1
:100B60005AFDC0F3846007E00321286802F053FDBA
:100B700090FAA0F0B0FA80F02168C1F3120119B91F
:100B80002168C1F3846104E0216891FAA1F1B1FA0E
:100B900081F1884204D100220321286802F07CFD03
:100BA000286802F046FD002872D12868E2682168B2
:100BB000D0F8B030C1F3120C23EA0C0302F0180B8A
:100BC000DFF844C12CFA0BFC0CEA010C43EA0C03DD
:100BD000C0F8B03000BF4A49E068884258D1236865
:100BE000C3F312031BB92368C3F3846304E02368CF
:100BF00093FAA3F3B3FA83F35B1C03F01F03092BEF
:100C00003ED82368C3F312031BB92368C3F384637C
:100C100004E0236893FAA3F3B3FA83F35B1C03F0B5
:100C20001F034FF0010C0CFA03FC2368C3F31203FB
:100C30001BB92368C3F3846304E0236893FAA3F326
:100C4000B3FA83F35B1C03F01F034CEA836C236845
:100C5000C3F312031BB92368C3F3846304E023685E
:100C600093FAA3F3B3FA83F35B1C03F01F0303EBC4
:100C700043034FF0000B4BEA03534CEA030347E0F6
:100C80002368C3F3120323B92368C3F3846305E025
:100C900043E0236893FAA3F3B3FA83F35B1C03F0F6
:100CA0001F034FF0010C0CFA03FC2368C3F312037B
:100CB0001BB92368C3F3846304E0236893FAA3F3A6
:100CC000B3FA83F35B1C03F01F034CEA836C2368C5
:100CD000C3F312031BB92368C3F3846304E02368DE
:100CE00093FAA3F3B3FA83F35B1C03F01F030A3BED
:100CF00003EB43034FF0007B4BEA035306E0000095
:100D000000007F4000F0FF03FFFF07004CEA0303F1
:100D10001946A268286802F0A5FC2F4920680840FF
:100D200050B300BF2D48806800F0E07600BF2C492A
:100D30002068884203D02B49206888421DD106F4E0
:100D40000000D0B92868B0F1A04F3ED146F40001B0
:100D5000224802F09BFC244800682449B0FBF1F0D3
:100D6000401C00EB40008000009002E00098401E14
:100D7000009000980028F9D127E01D49206888429A
:100D80000CD106F0807048B91A49286888421CD0F6
:100D900046F08071114802F079FC16E0164920688F
:100DA000884212D106F4800078B912492868884236
:100DB0000BD046F48001094802F068FC05E0E86DBC
:100DC00040F02000E8654FF0010A00BF002085F8E0
:100DD000580000BF5046A1E5000008800003005005
:100DE000000021C31000C09038000020400D030017
:100DF000000052C700010050000084CB2DE9F84FDD
:100E000004464FF000090020009014B90120BDE80D
:100E1000F88F606920B194F82400012800D100BF48
:100E2000E06D30B9204600F01DF90020206684F8FE
:100E3000580020688168C1F3407131B12068816831
:100E4000814A1140816000BF00BF206802F0FBFBB7
:100E5000B0B9206881687D4A114041F080518160BD
:100E600000BF7B4800687B49B0FBF1F0401C4000AC
:100E7000009002E00098401E009000980028F9D1F0
:100E8000206802F0E0FB48B9E06D40F01000E0653A
:100E9000206E40F0010020664FF00109206802F04A
:100EA000D7FB0646E06D00F0100000287CD1002E34
:100EB000FCD1E06D20F4807040F00200E065206815
:100EC00002F0B7FBB0B94FF0A04002F0B2FB82468F
:100ED000614802F0AEFB4AEA000ABAF1000F09D1FC
:100EE00060685E49896821F47C1101435B4A916026
:100EF00000BF00BF607FE16B41EA4030E16808431A
:100F0000A168084394F8241040EA014594F82400AD
:100F1000012803D1208D401E45EA4045E06A28B1F2
:100F2000A08D00F47870216B084305432068C068E9
:100F30004B49084028432168C8602068006920F0B8
:100F40004060616B084321680861206802F080FB03
:100F50008046206802F068FB0746B8F1000F50D1C8
:100F6000F7BB207F002141EA803194F8380041EA44
:100F700040052068C06844F2020188432843216884
:100F8000C860206988B12068006940F48030216819
:100F900008612068D0F8C0006FF30D002169084394
:100FA0002168C1F8C0000EE045E02068006920F427
:100FB0008030216808612068D0F8C0006FF30D0010
:100FC0002168C1F8C00094F84000012813D1606C7A
:100FD00040F00101A06C0843E16C0843216D00E082
:100FE0000FE008432168096940F2FC72914308430D
:100FF0002168086105E02068006920F0010021688F
:1010000008616069012809D12068006B20F00F0099
:10101000216A491E08432168086305E02068006BC7
:1010200020F00F0021680863E06D20F0020040F01E
:101030000100E06505E0E06D40F01000E0654FF074
:1010400001094846E3E60000C0FFFF5FC0FFFF7FE5
:1010500038000020400D0300000100500003005044
:101060000740F0FF10B586B00446142101A8FFF731
:1010700019F92068B0F1A04F24D100BF1248C06C0C
:1010800040F400501049C8640846C06C00F4005099
:10109000009000BF00BF00BF0846C06C40F00200D7
:1010A000C8640846C06C00F00200009000BF00BF9A
:1010B00001200190032002900020039001A9034821
:1010C00000F0DEF806B010BD001002400004004839
:1010D0000146002091F82520022A03D00422CA6389
:1010E000012027E00A68126822F00E020B681A60DD
:1010F0008A6C126822F480728B6C1A600A6812681B
:1011000022F001020B681A6091F8442002F01F03DC
:1011100001229A400B6C5A60D1E913325A604A6D31
:1011200042B14A6D126822F480724B6D1A60D1E9A7
:1011300016325A60012281F8252000BF002281F872
:10114000242000BF704770B50446002594F82500A0
:1011500002280BD00420E063012084F8250000BFA2
:10116000002084F8240000BF012534E020680068D6
:1011700020F00E00216808602068006820F001005F
:1011800021680860A06C006820F48070A16C086081
:1011900094F8440000F01F0101208840216C486051
:1011A000D4E913104860606D40B1606D006820F4B0
:1011B0008070616D0860D4E916104860012084F8E1
:1011C000250000BF002084F8240000BFA06B10B1F0
:1011D0002046A16B8847284670BD000070B50446C4
:1011E00000F048F906462546681C10B1044800681E
:1011F000054400BF00F03EF9801BA842FAD370BD41
:101200003400002010B504461348808CA04208D159
:10121000114A918C106A00F01FF910B90E4802F0C3
:10122000D6FC0E48808CA04208D10C4A918C106AE2
:1012300000F012F910B9094802F0C9FC0848808C86
:10124000A04208D1064A918C106A00F005F910B945
:10125000034802F0BCFC10BD7400002028010020EF
:10126000DC01002010B5044604480068204020B18D
:10127000024804602046FFF7C5FF10BD140401407A
:1012800078B503460022D0E0012696400D6805EAB5
:101290000604002C72D04D68012D08D04D68022D37
:1012A00005D04D68112D02D04D68122D13D19868CC
:1012B00056000325B540A8435600CD68B5402843E5
:1012C0009860586801259540A8430D79C5F300152D
:1012D000954028435860D86856000325B540A84378
:1012E00056008D68B5402843D8604D68022D02D065
:1012F0004D68122D13D1D60803F1200555F82600AC
:101300005507EE0E0F25B540A8435607F60E0D699A
:10131000B5402843D60803F1200545F82600186893
:1013200056000325B540A8430D7905F00305560086
:10133000B540284318604D6805F08055B5F1805FD1
:1013400072D100BF3C4D2D6E45F001053A4E356619
:1013500035462D6E05F00105009500BF00BF4FEA30
:10136000B635960855F8260095072E0F0F25B5407F
:10137000A843B3F1904F02D100251AE054E02F4D5D
:10138000AB4201D1012514E02D4DAB4201D1022524
:101390000FE02C4DAB4201D103250AE02A4DAB42B0
:1013A00001D1042505E0294DAB4201D1052500E01E
:1013B00006259607360FB5402843254D960845F873
:1013C0002600244D2868A0434D6805F48035B5F506
:1013D000803F00D120431F4D28602D1D2868A04369
:1013E0004D6805F40035B5F5003F00D12043194D97
:1013F0002D1D28602D1D2868A0434D6805F480151B
:10140000B5F5801F00D12043124D083528602D1DF1
:101410002868A0434D6805F40015B5F5001F00D1FC
:1014200020430C4D0C352860521C0D68D540002D12
:101430007FF42AAF78BD000000100240000400488D
:1014400000080048000C0048001000480014004844
:101450000800014000040140024613690B400BB133
:10146000012000E0002070470AB1816100E0816244
:101470007047000001480068704700002C00002001
:101480000348006803490968084401490860704737
:101490002C0000203400002010B50024032000F0B0
:1014A000B3F8002000F008F808B1012401E000F0D2
:1014B0002FF8204610BD000070B5044600251148E5
:1014C0000068D8B10F4800684FF47A71B1FBF0F0B2
:1014D0000D490968B1FBF0F6304601F033FA58B90E
:1014E000102C07D200222146501E00F04FF807486A
:1014F000046004E0012502E0012500E00125284602
:1015000070BD0000340000203800002030000020B2
:1015100008B500BF1248006E40F00100104908668F
:101520000846006E00F00100009000BF00BF00BF41
:101530000846806D40F0805088650846806D00F058
:101540008050009000BF00BF052000F05DF801F062
:10155000E5F9022001F0ECF900F0F6F808BD000012
:10156000001002400146084600280DDB00BF00BF06
:1015700000F01F0301229A4043099B0003F1E0237E
:10158000C3F8002100BF00BF00BF70472DE9F05F26
:1015900080460D46164603F0E5FD074639462A46C5
:1015A000334601F00700C0F1070ABAF1040F02D96F
:1015B0004FF0040A01E0C0F1070AD14600F1040A25
:1015C000BAF1070F02D24FF0000A01E0A0F1030ABE
:1015D000D4464FF0010A0AFA09FAAAF1010A0AEA06
:1015E000020A0AFA0CFA4FF0010B0BFA0CFBABF1F2
:1015F000010B0BEA030B4AEA0B042146404603F0B9
:10160000B9FDBDE8F09F000000BF00F00702064BE7
:1016100019684FF6FF031940044B0B4343EA0221BC
:10162000014B196000BF70470CED00E00000FA05A7
:1016300002468ABB4148006800F4C060B0F5806F84
:101640002BD13E488030006820F480703B4BC3F8BB
:1016500080001846006820F4C06040F400701860F4
:101660003748006832235843364BB0FBF3F0411C37
:1016700000E0491E3148406900F48060B0F5806F99
:1016800001D10029F5D12D48406900F48060B0F502
:10169000806F51D10320704708E0284880300068EF
:1016A00020F48070254BC3F8800045E0B2F5007F40
:1016B0003AD12248006800F4C060B0F5806F2AD1AA
:1016C0001E488030006840F480701C4BC3F88000D6
:1016D0001846006820F4C06040F400701860184894
:1016E000006832235843174BB0FBF3F0411C00E075
:1016F000491E1248406900F48060B0F5806F01D146
:101700000029F5D10D48406900F48060B0F5806F84
:1017100012D10320BFE709488030006840F4807090
:10172000064BC3F8800007E00448006820F4C0605E
:1017300040F48060014B18600020ACE7007000406E
:101740003800002040420F000348806840F4804089
:101750000149886070470000007000402DE9F8439F
:1017600004460027B846206800F40020B0F5002F9A
:1017700073D1B946D348806D00F0805078B900BF6E
:10178000D048806D40F08050CE4988650846806D15
:1017900000F08050009000BF00BF4FF00109CA4820
:1017A000006840F48070C8490860FFF763FE064691
:1017B00006E0FFF75FFE801B022801D9032705E042
:1017C000C148006800F480700028F2D000BF002FEC
:1017D00046D1BC489030006800F44075CDB1206C13
:1017E000A84216D0B7489030006820F44075B5483C
:1017F000D0F8900040F48030B249C1F8900008461B
:10180000D0F8900020F48030C1F890000846C0F86D
:10181000905005F00100A0B1FFF72CFE064608E04D
:10182000FFF728FE801B41F28831884201D9032747
:1018300006E0A4489030006800F002000028EFD0D5
:1018400000BF5FB99F489030006820F44070216C61
:1018500008439C49C1F8900003E00CE0B84600E062
:10186000B846B9F1010F05D19648806D20F080503F
:101870009449886500BF207800F0010048B1914884
:101880008830006820F00300616808438D49C1F882
:101890008800207800F00200022809D189488830A9
:1018A000006820F00C00A16808438649C1F8880050
:1018B000207800F00400042809D1824888300068AC
:1018C00020F03000E16808437E49C1F888002078A4
:1018D00000F00800082809D17A488830006820F014
:1018E000C000216908437749C1F88800207800F0DA
:1018F0002000202809D173488830006820F4406017
:10190000616908436F49C1F88800207800F0400001
:10191000402809D16B488830006820F44050A16904
:1019200008436849C1F88800207800F080008028CA
:1019300009D164488830006820F44040E1690843D8
:101940006049C1F88800208800F48070B0F5807F7D
:1019500009D15C488830006820F44030216A08438F
:101960005849C1F88800208800F40070B0F5007F65
:1019700009D154488830006820F44020616A084347
:101980005049C1F88800208800F48060B0F5806F6D
:1019900013D14C488830006820F44010A16A0843F5
:1019A000484988310860A06AB0F5801F05D14548D4
:1019B000C06840F480104349C860208800F400608B
:1019C000B0F5006F13D13F488830006820F4400024
:1019D000E16A08433B4988310860E06AB0F5800F4E
:1019E00005D13848C06840F480103649C860208866
:1019F00000F48050B0F5805F13D132488830006821
:101A000020F04070216B08432E4988310860206B1C
:101A1000B0F1807F05D12B48C06840F4801029497F
:101A2000C860208800F40050B0F5005F13D125484D
:101A30008830006820F04060616B0843214988319C
:101A40000860606BB0F1006F05D11E48C06840F4BB
:101A500080101C49C860208800F48040B0F5804F99
:101A600013D118488830006820F04060A16B08430B
:101A7000144988310860A06BB0F1006F05D111489E
:101A8000C06840F480100F49C860208800F400400E
:101A9000B0F5004F13D10B488830006820F040505B
:101AA000E16B0843074988310860E06BB0F1805F63
:101AB00005D10448C06840F480300249C8604046FF
:101AC000BDE8F88300100240007000402DE9F041AD
:101AD00004460D464FF0000814B90120BDE8F0811E
:101AE0007D48006800F00F00A8420ED27A480068D6
:101AF00020F00F002843784908600846006800F08D
:101B00000F00A84201D00120E8E7207800F0010092
:101B1000002864D06068032823D17048006800F072
:101B2000007008B90120D9E702F0CEF806466C48EB
:101B3000864237D96948806800F0F00030B12078DB
:101B400000F0020002282DD1A06858BB63488068CD
:101B500020F0F00040F08000604988604FF080087D
:101B600020E06068022806D15C48006800F400307C
:101B700040B90120B2E75948006800F4806008B914
:101B80000120ABE700F0DEF806465548864209D949
:101B90005248806820F0F00040F080004F49886093
:101BA0004FF080084D48806820F0030061680843CA
:101BB0004A498860FFF75EFC074608E0FFF75AFCD9
:101BC000C01B41F28831884201D9032086E743488F
:101BD000806800F00C006168B0EB810FEED12078D6
:101BE00000F00200022820D1207800F00400042830
:101BF00005D13A48806840F4E06038498860207830
:101C000000F00800082807D13448806820F46050AC
:101C100040F4E060314988603048806820F0F0008E
:101C2000A16808432D49886008E0B8F1800F05D10C
:101C30002A48806820F0F00028498860264800681B
:101C400000F00F00A84219D92348006820F00F00C7
:101C5000284321490860FFF70DFC074608E0FFF71D
:101C600009FCC01B41F28831884201D9032035E7C5
:101C70001948006800F00F00A842F0D1207800F069
:101C80000400042807D11548806820F4E060E1686A
:101C9000084312498860207800F00800082808D11D
:101CA0000E48806820F46050216940EAC1000B4969
:101CB000886000F047F809498968C1F30311094AAF
:101CC000515C01F01F01C8400749086007480068DF
:101CD000FFF7F2FB02E70000002002400010024084
:101CE00000B4C404385D0008380000203000002033
:101CF00001480068704700003800002000B5FFF779
:101D0000F7FF05498968C1F30221044A515C01F0DB
:101D10001F01C84000BD000000100240485D0008DF
:101D200000B5FFF7E5FF05498968C1F3C221044A00
:101D3000515C01F01F01C84000BD000000100240CE
:101D4000485D000870B5224DAD6805F00C05042D06
:101D500001D120483AE01E4DAD6805F00C05082D74
:101D600001D11D4832E01A4DAD6805F00C050C2D6F
:101D70002BD1174DED6805F00304154DED68C5F343
:101D800003156A1C022C0CD0032C09D1124DB5FB93
:101D9000F2F50F4EF668C6F3062605FB06F10AE0DB
:101DA00000BF0C4DB5FBF2F5094EF668C6F30626EA
:101DB00005FB06F100BF00BF054DED68C5F34165A9
:101DC0006D1C6B00B1FBF3F000E0002070BD000063
:101DD000001002400024F40000127A002DE9F843BC
:101DE000044614B90120BDE8F883207800F0010012
:101DF000002865D0FC48806800F00C07FA48C068ED
:101E000000F003060C2F01D1032E01D0082F0AD1B8
:101E1000F548006800F40030002851D060680028C0
:101E20004ED10120DFE700BF6068B0F5803F06D1EA
:101E3000ED48006840F48030EB4908601AE06068C3
:101E4000B0F5A02F0BD1E848006840F48020E649A7
:101E500008600846006840F4803008600AE0E24804
:101E6000006820F48030E04908600846006820F4EB
:101E70008020086000BF606888B1FFF7FBFA054664
:101E800006E0FFF7F7FA401B642801D90320AAE710
:101E9000D548006800F400300028F2D010E0FFF7C9
:101EA000E9FA054606E0FFF7E5FA401B642801D988
:101EB000032098E7CC48006800F400300028F2D1F5
:101EC000207800F00200022860D1C748806800F046
:101ED0000C07C548C06800F003060C2F01D1022E84
:101EE00001D0042F18D1C048006800F4806018B1F8
:101EF000E06808B9012076E7BB48406820F0FE4062
:101F0000217C40EA0160B8494860B8480068FFF7A2
:101F1000D3FA18B3012066E7E06800B3B24800685E
:101F200040F48070B0490860FFF7A4FA054606E067
:101F3000FFF7A0FA401B022801D9032053E7AA4863
:101F4000006800F480600028F2D0A748406820F0C4
:101F5000FE40217C40EA0160A349486016E0A248A7
:101F6000006820F48070A0490860FFF783FA0546F6
:101F700006E0FFF77FFA401B022801D9032032E771
:101F80009948006800F480600028F2D1207800F0C1
:101F90000800082836D16069D0B1934894300068B1
:101FA00040F001009049C1F89400FFF763FA05463C
:101FB00006E0FFF75FFA401B022801D9032012E771
:101FC00089489430006800F002000028F1D019E040
:101FD00085489430006820F001008349C1F89400DE
:101FE000FFF748FA054606E0FFF744FA401B0228CF
:101FF00001D90320F7E67C489430006800F0020025
:102000000028F1D1207800F00400042872D14FF0AC
:1020100000087548806D012121EA107078B100BF79
:102020007148806D40F080506F4988650846806D2A
:1020300000F08050009000BF00BF4FF001086C48D6
:10204000006800F48070B0B96948006840F480709E
:1020500067490860FFF70EFA054606E0FFF70AFA3F
:10206000401B022801D90320BDE66148006800F446
:1020700080700028F2D000BFA068012808D15A481B
:102080009030006840F001005749C1F8900021E00D
:10209000A06805280FD154489030006840F0040033
:1020A0005149C1F890000846D0F8900040F0010076
:1020B000C1F890000EE04C489030006820F001001C
:1020C0004949C1F890000846D0F8900020F004007B
:1020D000C1F8900000BFA068A8B1FFF7CBF9054692
:1020E00009E0FFF7C7F9401B41F28831884202D965
:1020F000032078E625E03C489030006800F00200BC
:102100000028EED013E0FFF7B5F9054608E0FFF729
:10211000B1F9401B41F28831884201D9032062E6BF
:1021200031489030006800F002000028EFD1B8F18B
:10213000010F05D12C48806D20F080502A49886518
:1021400000BF207800F02000202836D1A069D0B14F
:1021500025489830006840F001002349C1F89800F4
:10216000FFF788F9054606E0FFF784F9401B0228CF
:1021700001D9032037E61C489830006800F00200BF
:102180000028F1D019E018489830006820F00100CC
:102190001549C1F89800FFF76DF9054606E0FFF70D
:1021A00069F9401B022801D903201CE60E4898302B
:1021B000006800F002000028F1D1E069002860D03A
:1021C0000948806800F00C000C287FD0E0690228E4
:1021D00058D10548006820F0807003490860FFF777
:1021E00049F905460DE000000010024030000020D3
:1021F00000700040FFF73EF9401B022801D9032080
:10220000F1E54D48006800F000700028F2D1D4E9F3
:102210000810401E41EA0011A06A41EA0021208E08
:102220000122C2EB500041EA40513420005DC2EB74
:10223000500041EA40612C20005D41EAC0603E4907
:10224000C9683E4A114008433B49C86008460068D7
:1022500040F0807008600846C06840F08070C86038
:10226000FFF708F9054606E0FFF704F9401B0228CE
:1022700001D90320B7E53048006800F0007000285D
:10228000F2D056E02C48006820F080702A4908609F
:102290000846C06820F00300C8600846C0682849A6
:1022A00008402549C860FFF7E5F8054607E00DE05E
:1022B000FFF7E0F8401B022801D9032093E51E48F0
:1022C000006800F000700028F2D132E0E0690128D7
:1022D00000D188E51848C66806F00301206A8142EB
:1022E00025D106F0F001606A401EB1EB001F1ED13F
:1022F00006F4FE41A06AB1EB002F18D106F0784138
:102300002C20005DB1EBC06F11D106F4C001208E0E
:102310000122C2EB5000B1EB405F08D106F0C06172
:102320003420005DC2EB5000B1EB406F01D00120C2
:1023300059E5002057E50000001002400C809F0185
:10234000FFFFEEFE70B504460CB9012070BD606A57
:1023500038B96068B0F5827F00D105E00021E16105
:1023600002E00021216161610021A16294F85D0019
:1023700028B9002084F85C00204600F061F80220B3
:1023800084F85D002068006820F040002168086043
:10239000E068B0F5E06F01D9002501E04FF4805509
:1023A000E068B0F5706F05D0E068B0F5E06F01D07F
:1023B0000021A162A08800F48270218901F4044107
:1023C0000843217C01F002010843217D01F0010155
:1023D0000843218B01F400710843217F01F038018B
:1023E00008432021095D01F080010843218D01F49B
:1023F00000510843216808600421A06901EA1040E7
:1024000094F8241001F01001084394F8341001F0FE
:1024100008010843A18901F47061084305F4805163
:102420000843216848602068C06920F40060216882
:10243000C86100202066012084F85D00002085E747
:1024400010B586B00446142101A8FDF72BFF1749EB
:102450002068884228D100BF1548806D40F4804034
:10246000134988650846806D00F48040009000BFE5
:1024700000BF00BF0846C06C40F00200C8640846B8
:10248000C06C00F00200009000BF00BF4FF4C040DD
:1024900001900220029000200390049005200590F6
:1024A00001A90448FEF7ECFE06B010BD003800405C
:1024B00000100240000400482DE9F8430446884615
:1024C00016461D464FF000096068B0F5827F0DD1B9
:1024D000A06858B9042084F85D003346424641465E
:1024E0002046009500F0BBF8BDE8F88300BF94F8E3
:1024F0005C00012801D10220F6E7012084F85C008D
:1025000000BFFEF7B7FF074694F85D00012802D030
:102510004FF0020999E0B8F1000F00D016B94FF062
:10252000010992E0042084F85D0000202066C4F8D0
:102530004080A4F84460A4F84660A063A087E087C8
:10254000E0642065E068B0F5E06F06D92068406877
:1025500020F480502168486005E02068406840F41D
:10256000805021684860A068B0F5004F0BD120680A
:10257000006820F04000216808602068006820F4AE
:102580008040216808602068006800F04000402812
:1025900005D02068006840F0400021680860E068CD
:1025A000B0F5E06F22D81CE02068806800F00100E0
:1025B00060B12068007B216C0870206C401C206496
:1025C000B4F84600401EA4F846000AE0FEF752FFA9
:1025D000C01BA84201D3681C00B915B94FF003090C
:1025E00033E0B4F846000028DED121E01CE020688A
:1025F000806800F0010060B12068C068216C08802C
:10260000206C801C2064B4F84600401EA4F84600EC
:102610000AE0FEF72FFFC01BA84201D3681C00B9D7
:1026200015B94FF0030910E0B4F846000028DED1D8
:102630003A462946204601F037FD08B120202066A1
:10264000206E08B14FF0010900BF012084F85D0041
:1026500000BF002084F85C0000BF484644E72DE935
:10266000FF5F0446894692461D460E9E012001905A
:102670000020009000BF94F85C00012803D10220E4
:1026800004B0BDE8F09F012084F85C0000BFFEF7B5
:10269000F1FE074694F85D00029060680390A8463A
:1026A000AB46029801280BD00398B0F5827F04D185
:1026B000A06810B90298042802D00220009022E1FC
:1026C000B9F1000F03D0BAF1000F00D015B9012005
:1026D000009018E194F85D00042802D0052084F8E9
:1026E0005D0000202066C4F840A0A4F84650A4F87D
:1026F0004450C4F83890E587A587E0642065E06819
:10270000B0F5E06F02D8BBF1010F06D92068406830
:1027100020F480502168486005E02068406840F45B
:102720008050216848602068006800F04000402820
:1027300005D02068006840F0400021680860E0682B
:10274000B0F5E06F4ED9606810B1B8F1010F09D152
:10275000A06B00882168C860A06B801CA063E08F1C
:10276000401EE08736E02068806800F00200022802
:1027700010D1E08F70B1019801280BD1A06B0088B7
:102780002168C860A06B801CA063E08F401EE087BA
:10279000002001902068806800F0010080B1B4F84A
:1027A000460068B12068C068216C0880206C801CDD
:1027B0002064B4F84600401EA4F8460001200190B1
:1027C000FEF758FEC01BB04204D3701C10B10320AA
:1027D000009098E0E08F0028C5D1B4F846000028AA
:1027E000C1D185E0606810B1B8F1010F17D1E08F59
:1027F00001280AD9A06B00882168C860A06B801CE2
:10280000A063E08F801EE08709E0A06B007821685C
:102810000873A06B401CA063E08F401EE08760E05F
:102820002068806800F0020002281ED1E08FE0B12D
:102830000198012819D1E08F01280AD9A06B0088DE
:102840002168C860A06B801CA063E08F801EE087B9
:1028500009E0A06B007821680873A06B401CA0639E
:10286000E08F401EE087002001902068806800F023
:10287000010058B3B4F8460040B3B4F8460001284C
:1028800016D92068C068216C0880206C801C2064E8
:10289000B4F84600801EA4F84600B4F846000128AB
:1028A00012D82068406840F48050216848600BE0EE
:1028B0002068007B216C0870206C401C2064B4F8F8
:1028C0004600401EA4F8460001200190FEF7D2FD0C
:1028D000C01BB04201D3701C00B916B90320009090
:1028E00011E0E08F00289BD1B4F84600002897D172
:1028F0003A463146204601F018FC18B101200090FC
:102900002020206600BF012084F85D0000BF002069
:1029100084F85C0000BF0098B2E600000348006B3A
:1029200020F00100014908637047000000000140E9
:102930000349096B21F002010143014A1163704709
:102940000000014070B504462546681EB0F1807F46
:1029500001D301200FE0681E4FF0E02148610F21F4
:102960004FF0FF3002F006FC00204FF0E0218861BC
:1029700007200861002070BD70477047704770479E
:102980007047704730B502460B4600BF92F83C00D6
:10299000012801D1022030BD012082F83C0000BF97
:1029A000022082F83D0010684168106884681D4D5F
:1029B0001068A84203D01C4D1068A84203D121F42E
:1029C00070015868014319480140186801431068B4
:1029D0004160144D1068A84213D01068B0F1804FC8
:1029E0000FD0134D1068A8420BD0124D1068A842AA
:1029F00007D00D4D1068A84203D00F4D1068A842B3
:102A000005D124F080049868044310688460012094
:102A100082F83D0000BF002082F83C0000BF00BFEC
:102A2000B9E70000002C0140003401408FFFFFFD9A
:102A3000000400400008004000400140704710B50D
:102A400004460CB9012010BD94F83D0028B90020BF
:102A500084F83C00204600F029F8022084F83D006C
:102A6000211D206801F038FD012084F8480000BFD6
:102A700084F83E0001213F200155402001554120AE
:102A80000155422001554320015500BF00BF0120E0
:102A900084F8440045200155462001554720015542
:102AA00000BF012084F83D000020CCE738B5044683
:102AB0001A492068884216D100BF1948806D40F03D
:102AC0001000174988650846806D00F010000090DE
:102AD00000BF00BF002211463620FEF757FD36200A
:102AE000FEF740FD19E00F492068884215D100BF6C
:102AF0000B48806D40F02000094988650846806DCC
:102B000000F02000009000BF00BF002211463720D7
:102B1000FEF73CFD3720FEF725FD38BD00100040D4
:102B20000010024000140040014691F83D000128C9
:102B300001D001207047022081F83D000868C0687C
:102B400040F001000B68D860184B0868984213D019
:102B50000868B0F1804F0FD0154B086898420BD031
:102B6000144B0868984207D0134B0868984203D06A
:102B7000124B0868984210D108688068104B00EA30
:102B80000302062A0FD0B2F5803F0CD00868006817
:102B900040F001000B68186005E00868006840F02C
:102BA00001000B6818600020C4E70000002C014001
:102BB0000004004000080040003401400040014093
:102BC0000700010001460868C06820F001000A689B
:102BD000D06000BF0868006A41F21112104050B97D
:102BE0000868006A9200104028B90868006820F060
:102BF00001000A68106000BF012081F83D0000203C
:102C00007047704710B5044620680069C0F3400063
:102C1000D8B12068C068C0F34000B0B16FF00200C6
:102C200021680861012020772068806900F0030096
:102C300018B12046FFF7E5FF05E0204600F002F955
:102C4000204600F000F90020207720680069C0F3DA
:102C50008000D8B12068C068C0F38000B0B16FF0C8
:102C6000040021680861022020772068806900F450
:102C7000407018B12046FFF7C4FF05E0204600F081
:102C8000E1F8204600F0DFF8002020772068006996
:102C9000C0F3C000D8B12068C068C0F3C000B0B1B4
:102CA0006FF0080021680861042020772068C0695F
:102CB00000F0030018B12046FFF7A3FF05E020460F
:102CC00000F0C0F8204600F0BEF800202077206811
:102CD0000069C0F30010D8B12068C068C0F30010CC
:102CE000B0B16FF0100021680861082020772068DB
:102CF000C06900F4407018B12046FFF782FF05E07C
:102D0000204600F09FF8204600F09DF80020207734
:102D10002068006900F0010058B12068C06800F028
:102D2000010030B16FF0010021680861204600F019
:102D30008BF820680069C0F3C01058B12068C068E3
:102D4000C0F3C01030B16FF08000216808612046E8
:102D5000FFF713FE20680069C0F3002058B1206817
:102D6000C068C0F3C01030B16FF480702168086192
:102D70002046FFF701FE20680069C0F3801058B1BB
:102D80002068C068C0F3801030B16FF04000216847
:102D90000861204600F0A4F820680069C0F34010E4
:102DA00058B12068C068C0F3401030B16FF0200007
:102DB000216808612046FFF7E1FD20680069C0F343
:102DC000005058B12068C068C0F3005030B16FF4B3
:102DD0008010216808612046FFF7D2FD2068006955
:102DE000C0F3405058B12068C068C0F3405030B1C3
:102DF0006FF40010216808612046FFF7C0FD2068CD
:102E00000069C0F3805058B12068C068C0F380509A
:102E100030B16FF48000216808612046FFF7B1FDF2
:102E200020680069C0F3C05058B12068C068C0F382
:102E3000C05030B16FF40000216808612046FFF7F0
:102E4000FDFD10BD7047704710B504461B49206852
:102E50000968884208D11A4800F0CCFE194800F0F1
:102E6000C9FE194800F0C6FE184920680968884262
:102E700023D1012211031648FEF7F6FA0D2002F0C5
:102E8000FBFD00224FF480511148FEF7EDFA0120BE
:102E900002F0F2FD0F4801680068801C0D4B1860BD
:102EA000FF2301220C48FFF707FB0A4801680B4883
:102EB000814202D30548FFF785FE10BDB00B00200C
:102EC0007400002028010020DC010020640B002099
:102ED0000004004804000020000B0020600A0020CD
:102EE0007047014600BF91F88000012801D10220FF
:102EF0007047012081F8800000BF2420C1F88400C1
:102F0000086802680868006820F001000B68186013
:102F100022F0005200204866086802602020C1F8B4
:102F2000840000BF002081F8800000BF00BFDFE701
:102F30007047704770B504460D4600BF94F8800096
:102F4000012801D1022070BD012084F8800000BF5B
:102F50002420C4F88400206806682068006820F0F7
:102F60000100216808602068806820F060602843C4
:102F700021688860204601F00DFB20680660202053
:102F8000C4F8840000BF002084F8800000BF00BFA8
:102F9000D9E770B504460D4600BF94F880000128BB
:102FA00001D1022070BD012084F8800000BF2420E0
:102FB000C4F88400206806682068006820F00100DA
:102FC000216808602068806820F0604028432168FC
:102FD0008860204601F0DEFA206806602020C4F8F0
:102FE000840000BF002084F8800000BF00BFD9E744
:102FF00070477047704700002DE9F047044620688D
:10300000C569206806682068876840F60F0005EAF1
:103010000009B9F1000F0FD105F0200060B106F0F2
:10302000200010B907F0805030B1206F10B1204659
:10303000216F8847BDE8F087B9F1000F7ED0AD4819
:10304000384018B9AC4830400028F7D005F00100EE
:1030500058B106F4807040B1012021680862D4F8AC
:103060008C0040F00100C4F88C0005F0020058B15B
:1030700007F0010040B1022021680862D4F88C00FA
:1030800040F00400C4F88C0005F0040058B107F0CB
:10309000010040B1042021680862D4F88C0040F09F
:1030A0000200C4F88C0005F0080070B106F02000A2
:1030B00010B99048384040B1082021680862D4F81F
:1030C0008C0040F00800C4F88C0005F4006060B18A
:1030D00006F0806048B14FF4006021680862D4F8BF
:1030E0008C0040F02000C4F88C00D4F88C0000283C
:1030F00044D005F0200050B106F0200010B907F0D0
:10310000805020B1206F10B12046216F8847D4F83D
:103110008CA02068806800F04000402802D00AF0AF
:10312000280028B3204601F025FB2068806800F0C5
:103130004000402818D12068806800E01FE020F09F
:10314000400021688860E06F50B16C48E16F88638F
:10315000E06FFDF7F8FF88B1E06F816B88470DE005
:103160002046FFF747FF09E02046FFF743FF05E051
:103170002046FFF73FFF0020C4F88C005AE7E06EBE
:10318000012879D105F01000002875D006F0100054
:10319000002871D01020216808622068806800F043
:1031A000400040283DD1E06F006840681FFA80F879
:1031B000B8F1000F34D0B4F85C00404530DDA4F81D
:1031C0005E80E06F0068006800F02000F8B92068B9
:1031D000006820F48070216808602068806820F012
:1031E0000100216888602068806820F04000216824
:1031F00088602020C4F888000020E066206800680D
:1032000020F0100021680860E06FFDF761FFB4F85E
:103210005C00B4F85E20801A81B22046FFF788FE79
:1032200008E734F85C0F6188401A1FFA80F860885C
:103230005C3CF8B1B8F1000F1CD02068006820F4A5
:10324000907021680860206880682A49C943084056
:10325000216888602020C4F888000020E06620678C
:103260002068006820F01000216808604146204670
:10327000FFF75EFEDEE6FFE705F4801050B107F4CD
:10328000800038B14FF48010216808622046FFF7B3
:10329000B0FECFE605F0800058B106F0800010B90E
:1032A00007F4000028B1606F10B12046616F8847B5
:1032B000C0E605F0400030B106F0400018B12046ED
:1032C00001F076FAB6E605F4000030B106F0804071
:1032D00018B12046FFF78CFEACE605F0807030B1E7
:1032E00006F0004018B12046FFF723FEA2E600BF1B
:1032F000A0E6000001000010200100045B47000868
:1033000010B504460CB9012010BDA06900B100E061
:1033100000BFD4F8840028B9002084F8800020463B
:1033200000F02AF82420C4F884002068006820F007
:10333000010021680860204601F04CFA012800D104
:10334000E2E7A06A10B1204601F050F92068406819
:1033500020F49040216848602068806820F02A00AE
:10336000216888602068006840F0010021680860DA
:10337000204601F0B7F9C7E710B586B0044614211E
:1033800001A8FCF78FFF52492068884232D100BF64
:103390005048006E40F480404E4908660846006E72
:1033A00000F48040009000BF00BF00BF0846C06C22
:1033B00040F00100C8640846C06C00F001000090B5
:1033C00000BF00BF4FF4C0600190022002900020B7
:1033D000039004900720059001A94FF09040FDF75D
:1033E0004FFF002211462520FEF7D0F82520FEF7DA
:1033F000B9F86AE038492068884231D100BF3548C1
:10340000806D40F40030334988650846806D00F4D3
:103410000030009000BF00BF00BF0846C06C40F005
:103420000100C8640846C06C00F00100009000BFB5
:1034300000BF0C2001900220029000200390049015
:103440000720059001A94FF09040FDF719FF0022D9
:1034500002212620FEF79AF82620FEF783F834E0B2
:103460001E492068884230D100BF1A48806D40F460
:103470008020184988650846806D00F480200090FF
:1034800000BF00BF00BF0846C06C40F00200C86427
:103490000846C06C00F00200009000BF00BF4FF46F
:1034A00040600190022002900020039004900720C9
:1034B000059001A90A48FDF7E3FE002211462720E6
:1034C000FEF764F82720FEF74DF806B010BD0000A7
:1034D0000038014000100240004400400048004015
:1034E000000400482DE9F84F04460E4617469A4658
:1034F000D4F88800202873D106B117B90120BDE89F
:10350000F88F00BF94F88000012801D10220F6E76F
:10351000012084F8800000BF00205C34206322205A
:10352000E06200202061FDF7A5FF834627806780C9
:103530005C3C00BFA068B0F5805F0AD1206920B96B
:1035400040F2FF10A4F8600020E0FF20A4F8600023
:103550001CE0A06848B9206918B9FF20A4F86000F1
:1035600014E07F20A4F8600010E0A068B0F1805F54
:1035700009D1206918B97F20A4F8600006E03F2037
:10358000A4F8600002E00020A4F8600000BFB4F8D6
:103590006090A068B0F5805F04D1206910B9002563
:1035A000B04602E035464FF0000800BF002084F826
:1035B000800000BF21E05B46002220212046CDF89C
:1035C00000A001F0CDFA08B1032098E74DB92068BA
:1035D000406A00EA0900A8F8000008F1020807E0C4
:1035E00014E02068406A09F0FF01084028706D1C53
:1035F000B4F85E00401EA4F85E00B4F85E00002837
:10360000D9D12020C4F88800002078E7022076E78E
:10361000704700BFFEE7024602F1600000EB810345
:10362000186800F0F840704701468868C0F3C00091
:1036300070470146886800F00100704701468868BD
:1036400000F00100704701468868C0F300707047C1
:1036500001468868C0F38000704701468868C0F35F
:103660008000704770B500F11404C1F3406504EBAD
:1036700085031C68C1F304560725B540AC43C1F36C
:10368000045502FA05F52C431C6070BD826822F0D7
:10369000E0720A438260704710B500F1600404EBE9
:1036A00081031C6824F0004414431C6010BD42696F
:1036B00022F000420A4342617047000000B58BB01F
:1036C0000020089009900A9020216846FCF7EAFD46
:1036D0004FF0A0401F4908604FF44030486000217F
:1036E0001C488160C1600161416104218161002148
:1036F0000177417701210162002180F82410C16225
:10370000016380F83810C16380F84010FDF776FB44
:1037100008B1FDF766F80020089008A90D48FDF7EC
:1037200063F808B1FDF75DF80B48009006200190A2
:10373000002002907F200390042004900020059038
:1037400069460448FDF7D6F808B1FDF74AF80BB012
:1037500000BD0000940A00200080F03E00B587B054
:10376000142102A8FCF79EFD00BF5A48C06C40F02F
:1037700004005849C8640846C06C00F00400019079
:1037800000BF00BF00BF0846C06C40F02000C86406
:103790000846C06C00F02000019000BF00BF00BFD1
:1037A0000846C06C40F00100C8640846C06C00F0D8
:1037B0000100019000BF00BF00BF0846C06C40F090
:1037C0000200C8640846C06C00F00200019000BF0F
:1037D00000BF00224FF440413F48FDF745FE002264
:1037E00040F203114FF09040FDF73EFE00224FF4EF
:1037F00087513A48FDF738FE01224FF41041C803C3
:10380000FDF732FE4FF4005002900020039001209B
:10381000049002A93048FDF733FD4FF44040029078
:103820000120039004900020059002A92A48FDF78A
:1038300027FD49F20310029001200390049000201C
:10384000059002A94FF09040FDF71AFDB0200290BC
:10385000022003900020049005900520069002A904
:103860004FF09040FDF70CFD4FF4046002901C48AF
:1038700003900120049002A94FF09040FDF700FD55
:1038800040F206200290164803900120049002A9FD
:103890001248FDF7F5FC41F2E80002900120039088
:1038A00004900020059002A90C48FDF7E9FC0022D5
:1038B00011461720FDF76AFE1720FDF753FE002280
:1038C00011462820FDF762FE2820FDF74BFE07B0C9
:1038D00000BD00000010024000080048000400483D
:1038E0000000211010B51248124908604FF4827090
:1038F00048604FF480610F4881604FF47061C1608F
:103900000021016141614FF4007181613821C16181
:1039100000210162416281620721C16200210163CD
:1039200008214163FEF70EFD08B1FCF75AFF10BDF8
:1039300000380040000B00200EB5002000900190E0
:1039400002900E480E490860AB20486000210C48E8
:10395000816040F20E21C16080218161FFF76FF824
:1039600008B1FCF73EFF0020009002906946044831
:10397000FFF708F808B1FCF734FF0EBD0010004057
:10398000640B00200EB500200090019002900E48BC
:103990000E490860AB20486000210C488160352149
:1039A000C16080218161FFF74AF808B1FCF719FF77
:1039B00000200090029069460448FEF7E3FF08B13A
:1039C000FCF70FFF0EBD000000140040B00B0020FC
:1039D00010B52048204908604FF4E13048600021CC
:1039E0001D488160C16001610C214161002181613C
:1039F000C161016241620020174988620846FFF7F1
:103A00007FFC08B1FCF7EDFE00211348FFF7C1FA77
:103A100008B1FCF7E6FE00210F48FFF78BFA08B16A
:103A2000FCF7DFFE0C48FFF75CFA08B1FCF7D9FEA3
:103A300009480068006840F01000074909680860FC
:103A400005480068006840F02000034909680860E4
:103A500010BD000000380140FC0B002010B52848C4
:103A6000284908604FF416504860002125488160BD
:103A7000C16001610C21416100218161C16101626C
:103A8000416200201F4988620846FFF739FC08B1EF
:103A9000FCF7A7FE00211B48FFF77BFA08B1FCF7F3
:103AA000A0FE00211748FFF745FA08B1FCF799FE80
:103AB0001448FFF716FA08B1FCF793FE11480068A6
:103AC000006840F010000F49096808600D48006860
:103AD000006840F020000B49096808600948006848
:103AE000006820F040000749096808600548006840
:103AF000006820F0800003490968086010BD0000DC
:103B0000004400408C0C002010B52048204908607B
:103B10004FF4E130486000211D488160C1600161BF
:103B20000C21416100218161C1610162416200207B
:103B3000174988620846FFF7E3FB08B1FCF751FE1E
:103B400000211348FFF725FA08B1FCF74AFE0021CF
:103B50000F48FFF7EFF908B1FCF743FE0C48FFF7F9
:103B6000C0F908B1FCF73DFE09480068006840F064
:103B7000100007490968086005480068006840F0BF
:103B8000200003490968086010BD0000004800409B
:103B90001C0D002000BFFEE700BFFEE710B58388C4
:103BA0000268D15472B60289521C02818288521C6A
:103BB000438992FBF3F403FB1422828062B610BDAA
:103BC000016042810023C380838003817047C179F3
:103BD0008279914204D10122027400224281427210
:103BE000704710B50446204602F002F8204601F066
:103BF000DDFF10BD10B50446207C00283DD0207AA2
:103C0000401C2072E079A179884214D1207A0328DF
:103C100033DBA18C206AFDF71FFC30B16089A179EC
:103C2000491E01228A4010436081E079401EE07104
:103C30000021217221E0207A02281EDB60894110D8
:103C40006181A18C206AFDF707FC30B16089A17900
:103C5000491E01228A4010436081E079401EE071D4
:103C600000212172E07940B9A179E171002121742C
:103C7000A17A04F12800FFF791FFE07B08B3A07858
:103C8000401CA070A07802281BDB6078401E60708A
:103C90000020A070607810B90021E17310BD207978
:103CA00000F0010028B1A18B0122A069FDF7DCFB27
:103CB00004E0A18B0022A069FDF7D6FBA08840108C
:103CC000A08000BFEAE7704770B5164DED6805F0BB
:103CD0000304144DED68C5F303156B1C022C0CD0C6
:103CE000032C09D1104DB5FBF3F50E4EF668C6F363
:103CF000062605FB06F10AE000BF0C4DB5FBF3F507
:103D0000084EF668C6F3062605FB06F100BF00BFA5
:103D1000044DED68C5F341656D1C6A00B1FBF2F01E
:103D200070BD00000010024000127A000024F40070
:103D300010B501F03FF810BD2DE9F04104460D46E5
:103D4000164600BF0D48007808B901F033F800BFEF
:103D5000EFF311800746202080F3118800BF00BFD9
:103D600032462946204600F00BF88046F8B280F330
:103D7000118800BF00BF4046BDE8F081CC10002094
:103D80002DE9F047074688461646C24607EB47012D
:103D90001B4800EBC109D9F8140020B1012811D04B
:103DA000022826D11EE0484601F03CF80546B542FF
:103DB00001D2002405E0344632465146484601F01F
:103DC00086F918E0484601F02DF80546B54201D2C3
:103DD000284600E03046044622465146484601F057
:103DE00076F908E032465146484601F037F9044674
:103DF00001E0002400BF00BF2046BDE8F0870000BE
:103E0000E41000200FB438B5044606A800906A46B6
:103E10002046059900F008F8054600200090284645
:103E200038BC5DF814FB00002DE9F04F2DED028B3E
:103E3000CBB082460D46144603A846904FF48470DA
:103E4000479000204890CDF828A1499000BF2E78D7
:103E50006D1C06B90FE1252E73D100274FF0010923
:103E600000BF2E78232E12D02B2E0CD02D2E02D058
:103E7000302E10D103E047F001076D1C0EE047F033
:103E800002076D1C0AE047F004076D1C06E047F0CE
:103E900008076D1C02E04FF0000900BF00BFB9F138
:103EA000000FDED14FF0000800BF2E78302E01DB6E
:103EB000392E00DD07E06D1CA6F1300008EB88010B
:103EC00000EB4108F1E700BF002045902E782E2E30
:103ED00012D16D1C00BF2E78302E01DB392E00DD93
:103EE00009E06D1CA6F13000459901EB810100EB62
:103EF00041004590EFE700BF2E7800BF6C2E01D047
:103F0000682E02D16D1C2E7800E000E0F6E700BFBD
:103F1000662E7BD00CDC582E3DD004DC252E70D0D4
:103F2000462E6DD173E0632E0CD0642EF9D115E0CE
:103F3000702E53D0732E3CD0752E1DD0782EF0D11C
:103F400028E090E02168081D2060D1F8009009F079
:103F5000FF0B594646A801F05FF881E02168081D73
:103F60002060D1F80090CDE900870A22494646A892
:103F7000459B00F065FF73E02168081D2060D1F8C3
:103F80000090CDE900870A22494646A8459B00F0EB
:103F9000CDFF65E000BF2168081D2060D1F80090CA
:103FA000CDE900871022494646A8459B00F0BEFF98
:103FB00056E02168081D2060D1F800B000BF9BF8D2
:103FC00000600BF1010B06B906E0314646A801F08E
:103FD00023F849980028F2DA00BF41E02168081D63
:103FE0002060D1F80090002008210B461022CDE976
:103FF0000010494646A800F099FF31E006E000E0D5
:104000002DE0252146A801F007F829E000BF002097
:10401000009001900290EB462068C01D20F0070040
:1040200001460830206091ED000BB0EE408AF0EEC2
:10403000608A53EC182B1AA1684601F07FF800BF84
:104040009BF800600BF1010B06B906E0314646A86B
:1040500000F0E2FF49980028F2DA00BF00E000BF5C
:1040600000BF6D1C03E0314646A800F0D5FF49981B
:104070000028BFF6ECAE00BF499800280ADD48983A
:1040800020B103A95046489AFFF756FE489949982F
:104090000844499049984BB0BDEC028BBDE8F08FC5
:1040A00025342E3366000000F8B504460E4615464A
:1040B0006068B0F5827F0DD1A068B0F5004F03D0E5
:1040C000A068B0F5806F05D12068006820F040003E
:1040D000216808603346002280212046009500F0C8
:1040E000CBF828B1206E40F0200020660320F8BDF8
:1040F0006068B0F5827F16D1A068B0F5004F03D09C
:10410000A068B0F5806F0ED1334600224FF4C06135
:104110002046009500F03CF828B1206E40F02000C9
:1041200020660320E3E70020E1E7F8B504460E46E9
:104130001546334600224FF4C0512046009500F04A
:1041400027F828B1206E40F0200020660320F8BD3B
:104150003346002280212046009500F08DF828B1DA
:10416000206E40F0200020660320F0E73346002256
:104170004FF4C0612046009500F00AF828B1206E87
:1041800040F0200020660320E1E70020DFE7000088
:104190002DE9FC4704460D4616469846DDF8289062
:1041A000FDF768F9A0EB0900A8EB0007FDF762F93D
:1041B000824630480068C0EBC00000EB8000000D74
:1041C000784300904EE0B5F5C06F04D11EB9206869
:1041D000007B019000BF08F10100002842D0FDF7EC
:1041E00049F9A0EB0A00B84200D2A7BB206840689A
:1041F00020F0E000216848606068B0F5827F0DD152
:10420000A068B0F5004F03D0A068B0F5806F05D16D
:104210002068006820F0400021680860A06AB0F5BE
:10422000005F0DD100BF2068006820F400502168B5
:1042300008602068006840F400502168086000BFF2
:10424000012084F85D0000BF002084F85C0000BFFE
:104250000320BDE8FC87FFE7009800B9002700981D
:10426000401E0090206880682840B042ABD10020FA
:10427000EFE70000380000202DE9F84F04460D4616
:1042800090461E46DDF82890FDF7F4F8A0EB0900F3
:10429000371AFDF7EFF882462C480068C0F3CB30A0
:1042A0007843009045E0701C002842D0FDF7E2F80A
:1042B000A0EB0A00B84200D2A7BB2068406820F0FB
:1042C000E000216848606068B0F5827F0DD1A06889
:1042D000B0F5004F03D0A068B0F5806F05D120681D
:1042E000006820F0400021680860A06AB0F5005F17
:1042F0000DD100BF2068006820F4005021680860DC
:104300002068006840F400502168086000BF012068
:1043100084F85D0000BF002084F85C0000BF03202B
:10432000BDE8F88FFFE7009800B900270098401E0D
:104330000090206880682840A84201D1012000E058
:1043400000204045AFD10020EAE7000038000020FF
:104350007047000010B54FF090401A4988614FF443
:10436000805088834FF0904008624FF4006088844A
:10437000282081F826000846FFF733FC4FF09040D4
:1043800011498861022088834FF0904008624020E4
:104390008884172081F826000846FFF722FC4FF09A
:1043A00090400A4988614FF40040888308480862B9
:1043B0004FF480708884172081F826000846FFF7A4
:1043C00010FC10BD7400002028010020DC0100203A
:1043D0000004004810B5FDF753F80B480068401C76
:1043E00009490860084600684FF47A71B0FBF1F2A1
:1043F00001FB120038B905480068401C03490860F9
:1044000001200349087010BD200000202400002076
:104410002800002000B5A5B0382117A8FBF742FFFF
:10442000142112A8FBF73EFF442101A8FBF73AFF35
:104430000020FDF7FDF801201790000418900220DD
:104440001E9003211F91022117A84162552181620C
:104450000221C16201634163FDF7C0FC08B1FCF7B2
:10446000C0F90F2012900320139000201490159093
:104470001690042112A8FDF729FB08B1FCF7B1F949
:1044800048F20700019000200290039004904FF042
:104490000050109001A8FDF761F908B1FCF7A1F9EF
:1044A00025B000BD0348006840F470000149086071
:1044B0007047000088ED00E010B50248FEF7A2FB4F
:1044C00010BD0000640B002010B50248FEF79AFBF7
:1044D00010BD0000B00B002010B50268264B9842BA
:1044E0000BD0B0F1804F08D0244B984205D0244B1C
:1044F000984202D0234B984203D122F070024B68BD
:104500001A431D4B984214D0B0F1804F11D01B4B71
:1045100098420ED01A4B98420BD01A4B984208D0B2
:10452000194B984205D0194B984202D0184B98422B
:1045300003D122F44072CB681A4322F080034C6905
:1045400043EA040202608B68C3620B6883620A4B11
:1045500098420BD00B4B984208D00B4B984205D099
:104560000A4B984202D00A4B984201D10B6903636F
:104570000123436110BD0000002C014000040040F5
:104580000008004000340140004001400044014068
:104590000048014070B5456E2DB90125A0F86A505C
:1045A000A0F868501CE0082308240568AD68C5F32E
:1045B00042610568AD686A0F0A4DAD5C15FB04F5F4
:1045C000094EB65C95FBF6F5A0F86A50054D6D5C9A
:1045D00015FB03F5044E765C95FBF6F5A0F86850E4
:1045E00070BD0000285D0008305D000890F82810BC
:1045F00001F0010139B10168496821F40031C26A52
:1046000011430268516090F8281001F0020102295C
:1046100007D10168496821F48031026B11430268B7
:10462000516090F8281001F00401042907D10168B5
:10463000496821F48021426B11430268516090F86F
:10464000281001F00801082907D10168496821F400
:104650000041826B11430268516090F8281001F00C
:104660001001102907D10168896821F48051C26BBB
:1046700011430268916090F8281001F02001202970
:1046800007D10168896821F40051026C1143026866
:10469000916090F8281001F04001402913D1016881
:1046A000496821F48011426C114302685160416CE9
:1046B000B1F5801F07D10168496821F4C001826CFF
:1046C00011430268516090F8281001F080018029A0
:1046D00007D10168496821F40021C26C11430268C6
:1046E0005160704738B504460020C4F88C00FCF7D0
:1046F000C1FE05462068006800F0080008280CD1BB
:104700006FF07E402B4600224FF4001100902046AF
:1047100000F026FA08B1032038BD2068006800F0D8
:10472000040004280CD16FF07E402B4600224FF489
:1047300080010090204600F013FA08B10320EBE757
:104740002020C4F88400C4F888000020E06600BF80
:1047500084F8800000BF00BFDEE770B50546AC6A94
:104760000020A4F85E00A4F856002046FEF742FCA4
:1047700070BD00000168096821F490710268116041
:1047800001688968094A114002689160C16E012977
:1047900005D10168096821F010010268116020212B
:1047A000C0F888100021C16601677047FEFFFFEF67
:1047B00010B504462068006820F0400021680860B9
:1047C0002020C4F88400002060672046FEF720FF08
:1047D00010BD00002DE9FE4F044600200290D6498E
:1047E0002068884200D100E000BF2169A06808432A
:1047F00061690843E16940EA010820680068CF491F
:10480000084040EA0800216808602068406820F4F9
:104810004050E168084321684860D4F81880C649D0
:104820002068884202D0206A40EA08082068806830
:10483000C349084040EA0800216888602068C06ACF
:1048400020F00F00616A08432168C86200BFBD49BB
:104850002068884216D1BC48006800F0030030B1DF
:10486000012808D0022804D0032808D105E001253A
:1048700007E0022505E0042503E0082501E01025F6
:1048800000BF6FE0B1492068884216D1AE48006889
:1048900000F00C0030B1042808D0082804D00C28FF
:1048A00008D105E0002507E0022505E0042503E026
:1048B000082501E0102500BF54E0A5492068884282
:1048C00016D1A148006800F0300030B1102808D09F
:1048D000202804D0302808D105E0002507E0022573
:1048E00005E0042503E0082501E0102500BF39E0BC
:1048F00098492068884216D19348006800F0C000AB
:1049000030B1402808D0802804D0C02808D105E064
:10491000002507E0022505E0042503E0082501E065
:10492000102500BF1EE084492068884219D18648BE
:10493000006800F4406048B1B0F5806F0AD0B0F56F
:10494000006F05D0B0F5406F08D105E0002507E005
:10495000022505E0042503E0082501E0102500BF3D
:1049600000E0102500BF7449206888425DD135B150
:10497000022D08D0042D08D0082D0DD109E0FDF737
:10498000BDF906460CE0744E0AE0FDF7DBF9064679
:1049900006E04FF4004603E000260120029000BF2D
:1049A00000BF002E10D06D49606A31F81000B6FBD0
:1049B000F0F9606800EB4000484503D860680003E8
:1049C000484502D201200290AAE06449606A31F8A9
:1049D00010C06246002330461946FBF719FC4FF41D
:1049E000807C00220B46A0FB0C1B03FB0CB300FBDE
:1049F0000233606840088C461CEB000043EB020168
:104A0000CDE90001D4F804C062460023FBF700FCA6
:104A10000746B7F5407F05D3B7F5801F02D220685F
:104A2000C7607DE0012002907AE0E069B0F5004FB8
:104A300040D1092D17D2DFE805F005090D160F1634
:104A400016161300FDF75AF9064610E0FDF768F94F
:104A500006460CE0404E0AE0FDF774F9064606E013
:104A60004FF4004603E000260120029000BF00BF83
:104A7000FEB13A49606A31F81000B6FBF0F0400030
:104A8000616800EB5100B0FBF1F087B2102F0ED33C
:104A9000B7F5803F0BD24FF6F07007EA000AC7F374
:104AA00042004AEA000A2068C0F80CA038E0012061
:104AB000029035E0092D17D2DFE805F005090D1643
:104AC0000F1616161300FDF719F9064610E0FDF74C
:104AD00027F906460CE0204E0AE0FDF733F90646BA
:104AE00006E04FF4004603E000260120029000BFDC
:104AF00000BFAEB11949606A31F81000B6FBF0F0A2
:104B0000616800EB5100B0FBF1F087B2102F05D3C4
:104B1000B7F5803F02D22068C76001E00120029013
:104B20000120A4F86A00A4F86800002020676067EC
:104B30000298BDE8FE8F000000800040F369FFCFBF
:104B4000FFF4FF110038014088100240004400408B
:104B500000480040004C00400024F400105D0008B4
:104B60002DE9F04104460D4617469846069E4AE058
:104B7000701C002847D0FCF77DFCA0EB0800B04279
:104B800000D8C6B92068006820F4D0702168086099
:104B90002068806820F00100216888602020C4F827
:104BA0008400C4F8880000BF002084F8800000BFA3
:104BB0000320BDE8F0812068006800F0040010B315
:104BC0002068C069C0F3C020E8B14FF400602168DC
:104BD00008622068006820F4D070216808602068AE
:104BE000806820F00100216888602020C4F88400DB
:104BF000C4F88800C4F88C0000BF002084F880004E
:104C000000BF0320D5E72068C0692840A84201D131
:104C1000012000E00020B842AAD00020C9E700002F
:104C200010B51B48FEF7E8F919480068C069C0F3E1
:104C30004010E0B10A23012216491548FEF752FC44
:104C400015480078C8280BDA124800781349124A30
:104C50001278885410480078401C0F49087002E010
:104C600000200D4908702020094909680862084899
:104C70000068C069C0F3001048B1102004490968F9
:104C800008620548007810B101200549087010BD80
:104C9000FC0B00200000002018000020AC0D0020BC
:104CA0001900002008B51C48FEF7A6F91A4800684C
:104CB000C069C0F34010E8B14FF47A73012269462D
:104CC0001548FEF70FFC15480078C8280BDA9DF848
:104CD00000001349114A1278885410480078401C8B
:104CE0000E49087002E000200C49087020200A4993
:104CF0000968086208480068C069C0F3001048B13C
:104D000010200549096808620448007810B10120A4
:104D10000449087008BD00008C0C00201B00002016
:104D20003C0F00201A00002010B51C48FEF764F963
:104D30001A480068C069C0F34010E0B10A2301229C
:104D400017491648FEF7CEFB16480078C8280BDA3C
:104D5000134800781449134A12788854114800788F
:104D6000401C1049087002E000200E490870202005
:104D70000A490968086209480068C069C0F3001060
:104D800050B11020054909680862064800780728D4
:104D900002DD01200549087010BD00001C0D002037
:104DA000000000201D000020041000201C00002036
:104DB00000BFFEE710B5124C03202061606111A016
:104DC000A0611349E1614FF4806121620021A16279
:104DD0006162E1620BA020660E4961661021A16646
:104DE00000212167E16661670BA1E01DFBF765FA11
:104DF0000AA12046FBF761FA2020A07110BD000037
:104E0000CC1000205465726D696E616C000000006A
:104E10007411002074150020525454005345474724
:104E20004552000010B501460A69CB689A4204D881
:104E30008C68641EE41AA01801E0D41A601E10BD2C
:104E40002DE9FC5F06460F4692469846DDE90C4583
:104E5000002F01DA784200E0384683464FF001091E
:104E600003E09BFBFAFB09F10109D345F9DAC845D8
:104E700000D9C14634B1002F03DB05F0040004283B
:104E800000D1641E05F0020010B1B8F1000F11D07E
:104E900005F0010070B96CB108E0641E20213046B5
:104EA00000F0BAF8F068002800DA02E00CB1A14581
:104EB000F3D300BFF068002836DB002F05DA7F420D
:104EC0002D21304600F0A8F807E005F00400042882
:104ED00003D12B21304600F09FF8F068002823DB37
:104EE00005F00200022814D105F0010088B9B8F1DC
:104EF000000F0ED16CB108E0641E3021304600F086
:104F00008BF8F068002800DA02E00CB1A145F3D379
:104F100000BFF068002807DB43465246394630465A
:104F2000CDE9004500F002F8BDE8FC9F2DE9FC5FEB
:104F30008046894615461E460C9CCDF804900127F4
:104F4000BB4605E00198B0FBF5F001900BF1010BB9
:104F50000198A842F6D25E4500D9B3460D9800F0FC
:104F60000100D0B9CCB10D9800F00200022803D1A5
:104F700016B93020009001E02020009009E0641E66
:104F80004046009900F048F8D8F80C00002800DAF4
:104F900002E00CB1A345F2D300BFD8F80C00002802
:104FA00035DB09E0012E01D9761E04E0B9FBF7FAE2
:104FB000AA4500D201E06F43F4E700BF00BFB9FB90
:104FC000F7FA0AFB1799134810F80A10404600F048
:104FD00023F8D8F80C00002800DA03E0B7FBF5F757
:104FE000002FECD100BF0D9800F0010078B174B132
:104FF00009E0641E2021404600F00EF8D8F80C00AD
:10500000002800DA02E00CB1A345F2D300BFBDE8EE
:10501000FC9F0000005D000870B504460E46A568C0
:10502000681C6168814206D320684655681CA060F0
:10503000E068401CE060D4E9011088420DD1A2680C
:1050400021682069FEF778FEA168884203D04FF0FE
:10505000FF30E06001E00020A06070BD2DE9F04766
:105060000446894617464FF0000AE56800BFD4F8A9
:105070001080A84503D9A8EB0500461E04E0A5EB67
:105080000800401CA1680E1AA068401BB04201D95C
:10509000304601E0A068401B0646BE4201D23046C1
:1050A00000E0384606466168481932464946FBF733
:1050B000E0F8B244B144BF1B3544A068A84200D117
:1050C0000025E560002FD2D15046BDE8F0872DE9DC
:1050D000F047044689461546E668A068871BAF423C
:1050E00008D9616888192A464946FBF7C2F8701941
:1050F000E06010E0B8466168881942464946FBF70F
:10510000B8F8A5EB070809EB070142466068FBF712
:10511000B0F8C4F80C80BDE8F08700000FB4054B70
:1051200010B503A9044A029800F00AF910BC5DF812
:1051300014FB00008D5A00083C0000200FB4084BFF
:1051400010B504A902AA039800F0FAF8044602A9CF
:10515000002000F08CFC204610BC5DF814FB000021
:105160006F5A000802480068C0F302207047000030
:105170000CED00E010B5002804DB0A07130E054A09
:10518000135406E00A07140E034A00F00F031B1F16
:10519000D45410BD00E400E018ED00E002E008C8BF
:1051A000121F08C1002AFAD170477047002001E0A1
:1051B00001C1121F002AFBD1704700002DE9FF5FDB
:1051C00082B00021DDE90430020DDDF840B0034378
:1051D00018D044F61050A2F2FF3242431514119831
:1051E00001281FD0A5EB0B00401C5FEA000A4FF01E
:1051F00000064E4FDFF83891B046504615D5CAF13B
:10520000000413E0119801244AA3012801D16FEA98
:105210000B010298119AC0E90031C0E9024206B0C0
:10522000BDE8F09FCBF10000DFE704460021404AD3
:10523000491842EB0450CDE9001012E0E00707D016
:1052400032463B4640464946FBF71CF980468946B4
:1052500032463B4610461946FBF714F906460F4600
:105260006410002CEAD1DDE90401DDE90023BAF184
:10527000000F06DAFBF706F942464B46FBF702F948
:1052800005E0FBF771F942464B46FBF76DF9044622
:105290000E460022284BFBF7EFF903D84FF0FF3002
:1052A000014607E00022254B20463146FBF743F834
:1052B000FBF7C9F9102409E0002C0ADB0A220023BD
:1052C000FAF7A6FF039B30321A55641E50EA01021A
:1052D000F2D1641C039AC4F111031444119A012AF7
:1052E00003D0012208430DD10AE0084304D0002076
:1052F0004FF0110B119072E7A3EB0B056D1E0DE043
:105300005B4504DD4FF0000205F1010504E003DA1E
:105310004FF00002A5F10105002AECD00298119986
:10532000C0E90231C0E9004579E7000000001440FF
:105330000000F03F300000000000F0430000E03FBC
:105340002DE9FF4F95B09B468946064600250FE2A2
:10535000252877D100242746F84A0121059400E04A
:10536000044316F8013F203B01FA03F01042F7D145
:1053700030782A2811D06FF02F033078A0F1300256
:10538000092A16D8059A44F0020402EB820203EBC4
:1053900042021044761C0590EFE759F8042B059261
:1053A000002A03DA504244F40054059044F0020409
:1053B000761C30782E2816D116F8010F44F004041C
:1053C0002A280DD06FF02F023078A0F13003092B7E
:1053D00009D807EB870302EB4303C718761CF3E7F2
:1053E00059F8047B761C30786C280FD006DC4C28EA
:1053F00017D068280DD06A2814D104E0742810D082
:105400007A280FD10DE044F400140AE044F480142B
:1054100001E044F440147278824202D104F5801411
:10542000761C761C307866280BD013DC582877D091
:1054300009DC002875D04528F6D04628F4D0472846
:105440001AD19DE118E0632835D0642879D0652809
:1054500012D195E1702873D008DC6728F1D0692853
:105460006FD06E280DD06F2806D1B5E073282CD0F0
:10547000752875D0782874D05A46179990476D1CB6
:1054800075E1C4F30250022809D003280DD0D9F8E1
:10549000001004280DD00D6009F1040967E1D9F866
:1054A0000010EA17C1E90052F6E7D9F800100D80A4
:1054B000F2E70D70F0E719F8041B8DF800100020DA
:1054C0008DF80100EA46012003E059F804AB4FF0E3
:1054D000FF3061074FF0000102D40DE008F1010137
:1054E0008846B9420FDA8045F8DB1AF8081000291F
:1054F000F4D108E008F1010188468142FADB1AF88C
:1055000008100029F6D105985B46A0EB0807214654
:105510003846179A00F094FA284400EB080507E093
:105520004DE029E10DE01AF8010B5A461799904712
:10553000B8F10108F7D25B4621463846179A13E1C5
:1055400042E00A220092C4F302524FF0000A022AFB
:1055500008D059F804CB032A4FEAEC710AD00DE0C9
:1055600029E02AE009F1070121F00702F2E802C16F
:10557000914609E00FFA8CFC4FEAEC71042A03D142
:105580004FFA8CFC4FEAEC71002907DA0A46002139
:10559000DCF1000C61EB02012D2202E0220504D5B2
:1055A0002B228DF80420012203E0E20701D0202203
:1055B000F7E7904659E00A2102E010220DE01021A1
:1055C0004FF0000A00910BE010224FF0000A44F067
:1055D00004040827009203E008224FF0000A00921A
:1055E000C4F30252022A05D059F804CB0021032A41
:1055F00008D009E009F1070121F00702F2E802C131
:10560000914605E01FFA8CFC042A01D10CF0FF0C36
:105610004FF00008220728D5702806D0009B83F0A1
:10562000100353EA0A0305D00EE040228DF804204F
:10563000012208E05CEA010206D030228DF8042045
:105640008DF8050002229046009B83F0080353EA80
:105650000A030AD15CEA010201D1620705D53022B2
:105660008DF804204FF001087F1E582804D034A084
:1056700003900EA802900DE036A0F9E7534660466D
:10568000009AFAF7C5FD84460398825C0298401E92
:10569000029002705CEA0100F0D1029806A9081A93
:1056A00000F1200A600702D524F4803400E00127CD
:1056B000574502DDA7EB0A0000E0002000EB0A01DD
:1056C000009005984144401A0590E00306D45B46DB
:1056D0002146179A059800F0B3F90544002706E023
:1056E00001A85A46C05D179990476D1C7F1C47451D
:1056F000F6DBE0030CD55B462146179A059800F0CF
:105700009FF9054404E030205A46179990476D1CD4
:105710000099481E00900029F5DC08E002980299E3
:105720005A460078491C0291179990476D1CBAF1AE
:105730000001AAF1010AF1DC65E10000092801007D
:1057400030313233343536373839616263646566F7
:1057500000000000303132333435363738394142B9
:10576000434445460000000000F058F90544761C0B
:10577000307800287FF4ECAD19B02846BDE8F08FF2
:10578000620700D4062709F1070222F0070CFCE8A3
:105790000223E14603F000485FEA080C02D00FF252
:1057A000702C0DE05FEA045C02D50FF2682C07E074
:1057B0005FEAC47C02D00FF2602C01E0AFF2700C03
:1057C0004FF0FF3823F00043CDF850C065280CD0CF
:1057D00006DC452809D046281DD047283DD13DE0AC
:1057E000662818D067287ED138E00021112F01DB10
:1057F000112000E0781CCDE9000106A90EA8FFF7F2
:10580000DDFCDDE90F010E9A03910021009207F102
:10581000010A04914DE04FF000400097CDE90110DE
:1058200006A90EA8FFF7CAFCDDE90F0203920E9B42
:1058300011990022DDF80CA00093049211B9791C93
:1058400000EB010AB7EB0A0004D4C0F1FF3007F106
:10585000010A0490AAEB0700019044E0012F00DA4E
:1058600001270021112F01DD112000E03846CDE98C
:10587000000106A90EA8FFF7A1FCDDE90F010E9AB1
:105880000391002104910092BA4621070CD4039998
:10589000514500DA8A46BAF1010F05DD009AAAF1F6
:1058A0000101515C302908D0B84202DA10F1040F2E
:1058B00006DA0121CDE9011015E0AAF10101E9E7BD
:1058C000002805DC049901440491AAEB000102E0E0
:1058D000411C514500DD8A460499401A401C019044
:1058E0004FF000400290200704D40198504501DB9E
:1058F000CDF8048000208DF84F0002980DF14F077D
:10590000B0F1004F25D02B200E9002984FF00208E6
:1059100000280CDA404202902D200E9007E00A2168
:105920000298FAF7D3FC3031029007F8011DB8F164
:105930000001A8F10108F2DC02980028EFD1791EDD
:105940000E980870307800F0200040F0450007F80D
:10595000020D12A8C01B00F107081498007800B1CE
:10596000012000EB0A01019801EBE0710598414428
:10597000401A401E0590E00306D45B462146179A64
:10598000059800F05DF805441498007818B15A465F
:10599000179990476D1CE00324D55B462146179A62
:1059A000059800F04DF805441CE00498002807DB3A
:1059B000DDE90301884203DD0098405C179901E0AE
:1059C000179930205A469047049805F10105401C6C
:1059D00004900198401E019004D12E205A46179938
:1059E00090476D1CBAF10001AAF1010ADDDC05E067
:1059F00017F8010B5A46179990476D1CB8F1000132
:105A0000A8F10108F4DC5B462146179A0598ABE63D
:105A10002D0000002B000000200000002DE9F041C7
:105A2000044600251E461746880404D405E039467E
:105A30002020B0476D1C641EF9D52846BDE8F081D2
:105A40002DE9F041044600251E469046C80301D5C5
:105A5000302700E02027880404D505E04146384679
:105A6000B0476D1C641EF9D52846BDE8F0810A6870
:105A7000531C0B601070704700EB401100BF00BF5B
:105A80000A1EA1F10101FAD17047000070B5044669
:105A90000D46E2B202A10020FEF7B4F9204670BD27
:105AA00025630000FBF7F8FCFEF7B4FCFEF740F9B5
:105AB0001FA10020FEF7A6F923A0FFF72FFBFDF79B
:105AC0004DFEFDF7FBFDFDF70DFFFDF781FFFDF737
:105AD000C5FFFEF719F8FDF72FFFFDF753FF294823
